S02500004F62737461636C652041766F6964616E636520526F626F742056312E302E73726563FD
S11300000C9431000C94F5030C941E040C942D04F0
S11300100C944E000C94EB050C944E000C944E0082
S11300200C944E000C942B050C944E000C944E0032
S11300300C944E000C944E000C944E000C944E0004
S11300400C944E000C944E000C944E000C944E00F4
S11300500C944E008D059805AE05A305B905C4059D
S1130060CF0511241FBECFE5D8E0DEBFCDBF10E021
S1130070A0E6B0E0E8EDF0E102C005900D92AC38E6
S1130080B107D9F720E0ACE8B0E001C01D92A23B73
S1130090B207E1F70E94A9010C946A080C940000CD
S11300A080919D00813039F580918C0090918D0074
S11300B0A0918E00B0918F0089399105A105B105F9
S11300C064F40196A11DB11D80938C0090938D0062
S11300D0A0938E00B0938F00089510928C0010921C
S11300E08D0010928E0010928F0010929D0081E07E
S11300F080939A000895823031F580918C0090911C
S11301008D00A0918E00B0918F008E339105A105D2
S1130110B10564F40196A11DB11D80938C009093E8
S11301208D00A0938E00B0938F00089510928C00E0
S113013010928D0010928E0010928F0010929D00EC
S113014081E080939C0008950E9455030E947501EC
S11301500E9406010E94DC0580E590E00E94E6050D
S11301600895CF92DF92EF92FF9220E030E048ECC6
S113017052E40E949B066093AA007093AB008093A4
S1130180AC009093AD0020E030E040E853E40E94DE
S1130190F7076B017C016093AE007093AF0080930E
S11301A0B0009093B1009B01AC0160E070E080E886
S11301B093E40E94120660939E0070939F008093C4
S11301C0A0009093A100C701B6010E94130561E04D
S11301D08CE10E94B80261E08DE10E94B802609156
S11301E09E0070919F008091A0009091A1000E94B8
S11301F0130560E08CE10E94B80260E08DE10E948A
S1130200B802FF90EF90DF90CF90089540E063E450
S113021082E00E946A0340E063E483E00E946A0390
S11302200895CF93C82F60E081E00E94B80260E097
S113023082E00E94B802C4FB662760F984E00E9451
S1130240B802C5FB662760F985E00E94B802C6FBC8
S1130250662760F986E00E94B8026C2F661F662745
S1130260661F87E00E94B80261E083E00E94B80242
S113027089EF90E00197F1F700C0000060E083E0AF
S11302800E94B80289EF90E00197F1F700C00000E6
S11302906C2F617084E00E94B802C1FB662760F98C
S11302A085E00E94B802C2FB662760F986E00E94DE
S11302B0B802C3FB662760F987E00E94B80261E0D8
S11302C083E00E94B80289EF90E00197F1F700C043
S11302D0000060E083E00E94B80289EF90E001979B
S11302E0F1F700C00000CF91089583ED90E30197EA
S11302F0F1F700C0000082E00E94110189EF90E054
S11303000197F1F700C0000088E20E94110189EF13
S113031090E00197F1F700C000008CE00E94110109
S113032089EF90E00197F1F700C0000081E00E949E
S1130330110183EF91E00197F1F700C0000086E01E
S11303400E94110189EF90E00197F1F700C00000CD
S113035008950E94A40060E08CE10E94B60160E070
S113036070E084EB92E40E94B100F9CF982F969547
S113037096959695953008F0F9C08770613031F004
S113038008F4A4C0623009F451C0EFC09130C1F048
S113039028F0923039F19330B9F1E7C04AB321E043
S11303A030E0B90102C0660F771F8A95E2F7CB01EE
S11303B08095942F98239ABB9BB389238BBBD5C07C
S11303C047B321E030E0B90102C0660F771F8A9578
S11303D0E2F7CB018095942F982397BB98B3892398
S11303E088BBC3C044B321E030E0B90102C0660F4A
S11303F0771F8A95E2F7CB018095942F982394BBBD
S113040095B3892385BBB1C041B321E030E0B90184
S113041002C0660F771F8A95E2F7CB018095942F6F
S1130420982391BB92B3892382BB9FC09130C1F0C2
S113043028F0923039F19330B9F197C04AB321E0F2
S113044030E0B90102C0660F771F8A95E2F7CB014D
S1130450962F909594239ABB9BB3892B8BBB85C015
S113046047B321E030E0B90102C0660F771F8A95D7
S1130470E2F7CB01962F9095942397BB98B3892BE1
S113048088BB73C044B321E030E0B90102C0660FF9
S1130490771F8A95E2F7CB01962F9095942394BB0E
S11304A095B3892B85BB61C041B321E030E0B9012C
S11304B002C0660F771F8A95E2F7CB01962F9095BD
S11304C0942391BB92B3892B82BB4FC09130C1F06E
S11304D028F0923039F19330B9F147C04BB321E0A1
S11304E030E0B90102C0660F771F8A95E2F7CB01AD
S11304F0962F909594239BBB9AB3892B8ABB35C0C6
S113050048B321E030E0B90102C0660F771F8A9535
S1130510E2F7CB01962F9095942398BB97B3892B40
S113052087BB23C045B321E030E0B90102C0660FA8
S1130530771F8A95E2F7CB01962F9095942395BB6C
S113054094B3892B84BB11C042B321E030E0B901DC
S113055002C0660F771F8A95E2F7CB01962F90951C
S1130560942392BB91B3892B81BB089582E00895B3
S1130570982F969596959695953008F08EC0633091
S113058008F08DC08770613009F040C09130A1F04F
S113059028F09230F9F0933059F183C04BB321E045
S11305A030E0B90102C0660F771F8A95E2F7CB01EC
S11305B0842B8BBB80E0089548B321E030E0B9017F
S11305C002C0660F771F8A95E2F7CB01842B88BBA4
S11305D080E0089545B321E030E0B90102C0660F20
S11305E0771F8A95E2F7CB01842B85BB80E00895C1
S11305F042B321E030E0B90102C0660F771F8A954B
S1130600E2F7CB01842B82BB80E00895611144C0E2
S11306109130A9F028F0923009F1933071F143C080
S11306204BB321E030E0B90102C0660F771F8A9511
S1130630E2F7CB01809584238BBB80E0089548B317
S113064021E030E0B90102C0660F771F8A95E2F716
S1130650CB018095842388BB80E0089545B321E0D5
S113066030E0B90102C0660F771F8A95E2F7CB012B
S11306708095842385BB80E0089542B321E030E077
S1130680B90102C0660F771F8A95E2F7CB01809506
S1130690842382BB80E00895089582E0089583E076
S11306A0089580E0089580E008950F931F93CF93F9
S11306B0DF93C0E6D0E006E810E0698188810E94FB
S11306C0B6012296C017D107C1F7DF91CF911F91D0
S11306D00F910895623459F118F4613441F008958A
S11306E0633409F444C0643409F460C008954111CA
S11306F00EC04BB321E030E0B90102C0660F771F92
S11307008A95E2F7CB01809584238BBB0895413011
S113071009F06AC04BB321E030E0B90102C0660FB2
S1130720771F8A95E2F7CB01842B8BBB0895411187
S11307300EC048B321E030E0B90102C0660F771F54
S11307408A95E2F7CB018095842388BB08954130D4
S113075009F04AC048B321E030E0B90102C0660F95
S1130760771F8A95E2F7CB01842B88BB089541114A
S11307700EC045B321E030E0B90102C0660F771F17
S11307808A95E2F7CB018095842385BB0895413097
S113079059F545B321E030E0B90102C0660F771F77
S11307A08A95E2F7CB01842B85BB089541110EC0D5
S11307B042B321E030E0B90102C0660F771F8A9589
S11307C0E2F7CB018095842382BB0895413061F424
S11307D042B321E030E0B90102C0660F771F8A9569
S11307E0E2F7CB01842B82BB08951F920F920FB6C0
S11307F00F9211242F933F934F935F936F937F93A3
S11308008F939F93AF93BF93EF93FF93E0919300E4
S1130810F0919400309709F00995FF91EF91BF9101
S1130820AF919F918F917F916F915F914F913F9184
S11308302F910F900FBE0F901F9018951F920F923B
S11308400FB60F9211248F9381E0809390008F91C3
S11308500F900FBE0F901F9018951F920F920FB616
S11308600F9211242F933F934F935F936F937F9332
S11308708F939F93AF93BF93EF93FF93E091910076
S1130880F0919200309709F00995FF91EF91BF9193
S1130890AF919F918F917F916F915F914F913F9114
S11308A02F910F900FBE0F901F9018958091860086
S11308B08130F1F028F0823099F0843049F020C082
S11308C083B78F7B83BF83B7877F83BF84E008951B
S11308D083B7806483BF83B7877F83BF84E0089531
S11308E083B78F7B83BF83B7886083BF84E0089519
S11308F083B7806483BF83B7886083BF84E008952F
S113090081E0089580918700823009F128F48823DA
S113091041F0813089F03CC0853021F1863069F1A5
S113092037C083B7816083BF83B78D7F83BF83B7AD
S11309308B7F83BF84E0089583B7826083BF83B7CE
S11309408E7F83BF83B78B7F83BF84E0089583B793
S1130950816083BF83B7826083BF83B78B7F83BF8C
S113096084E0089583B7846083BF83B78D7F83BF9A
S113097083B78E7F83BF84E0089583B7816083BF8C
S113098083B78D7F83BF83B7846083BF84E008957A
S113099080E008958F929F92AF92BF92CF92DF92A0
S11309A0EF92FF924B015C0120E030E0A9010E942C
S11309B0F2071816ECF4C12CD12C760108B600FE0F
S11309C0FDCF88B7816088BF20E030E040E85FE376
S11309D0C701B6010E9413066B017C019B01AC01A7
S11309E0C501B4010E94F207181644F384E012C052
S11309F020E030E0A901C501B4010E949606181652
S1130A0044F008B600FEFDCF88B7816088BF84E05B
S1130A1001C082E0FF90EF90DF90CF90BF90AF9045
S1130A209F908F900895CF930E947F060E940D0798
S1130A30C62F0E945604C2BF0E94820460E070E088
S1130A4080E89FE30E94CA0413BE12BE88B7816087
S1130A5088BFCF9108951F920F920FB60F92112461
S1130A602F933F934F935F936F937F938F939F93B2
S1130A70AF93BF93EF93FF93E0919700F0919800A9
S1130A80309709F00995FF91EF91BF91AF919F9134
S1130A908F917F916F915F914F913F912F910F9023
S1130AA00FBE0F901F90189580918A008130F1F04D
S1130AB028F0823099F0843049F020C085B58F7BCE
S1130AC085BD85B5877F85BD84E0089585B580643F
S1130AD085BD85B5877F85BD84E0089585B58F7B09
S1130AE085BD85B5886085BD84E0089585B580643D
S1130AF085BD85B5886085BD84E0089581E008954D
S1130B00E0918B008E2F90E08730910508F052C061
S1130B10FC01E65DFF4F0C94640885B5816085BDDA
S1130B2085B58D7F85BD85B58B7F85BD84E00895B2
S1130B3085B5826085BD85B58E7F85BD85B58B7F86
S1130B4085BD84E0089585B5816085BD85B58260E5
S1130B5085BD85B58B7F85BD84E0089585B58460AA
S1130B6085BD85B58D7F85BD85B58E7F85BD84E0CA
S1130B70089585B5816085BD85B58D7F85BD85B5B5
S1130B80846085BD84E0089585B5846085BD85B5A0
S1130B908E7F85BD85B5826085BD84E0089585B569
S1130BA0816085BD85B5826085BD85B5846085BD60
S1130BB084E0089580E00895789489B7806489BFBB
S1130BC00E94540514BC0E948005089590939600D9
S1130BD08093950008951F920F920FB60F921124DF
S1130BE02F933F934F935F936F937F938F939F9331
S1130BF0AF93BF93EF93FF93E0919500F09196002C
S1130C000995FF91EF91BF91AF919F918F917F9142
S1130C106F915F914F913F912F910F900FBE0F9065
S1130C201F9018955058BB27AA270E942A060C9497
S1130C30A0070E94920738F00E94990720F039F427
S1130C409F3F19F426F40C948F070EF4E095E7FB0C
S1130C500C946007E92F0E94B10758F3BA17620792
S1130C6073078407950720F079F4A6F50C94EB0735
S1130C700EF4E0950B2EBA2FA02D0B01B9019001B3
S1130C800C01CA01A0011124FF27591B99F0593FF7
S1130C9050F4503E68F11A16F040A22F232F342F3F
S1130CA04427585FF3CF469537952795A795F0408D
S1130CB05395C9F77EF41F16BA0B620B730B840BA2
S1130CC0BAF09150A1F0FF0FBB1F661F771F881F5A
S1130CD0C2F70EC0BA0F621F731F841F48F48795B2
S1130CE077956795B795F7959E3F08F0B0CF9395A4
S1130CF0880F08F09927EE0F9795879508950E941D
S1130D00D30790F09F3748F4911116F40C94EC0734
S1130D1060E070E080E89FE3089526F01B16611DF3
S1130D20711D811D0C9466070C9481070E943C0779
S1130D3008F481E008950E94AF060C94A0070E9475
S1130D40990758F00E94920740F029F45F3F29F078
S1130D500C94600751110C94EC070C948F070E94BB
S1130D60B10768F39923B1F3552391F3951B550B00
S1130D70BB27AA2762177307840738F09F5F5F4F6A
S1130D80220F331F441FAA1FA9F335D00E2E3AF0A9
S1130D90E0E832D091505040E695001CCAF72BD0C1
S1130DA0FE2F29D0660F771F881FBB1F2617370712
S1130DB04807AB07B0E809F0BB0B802DBF01FF2744
S1130DC093585F4F3AF09E3F510578F00C946007BA
S1130DD00C94EC075F3FE4F3983ED4F38695779543
S1130DE06795B795F7959F5FC9F7880F911D9695FD
S1130DF0879597F90895E1E0660F771F881FBB1F59
S1130E00621773078407BA0720F0621B730B840B05
S1130E10BA0BEE1F88F7E09508950E94B90788F091
S1130E209F5798F0B92F9927B751B0F0E1F0660FAA
S1130E30771F881F991F1AF0BA95C9F714C0B130EB
S1130E4091F00E94EB07B1E008950C94EB07672F33
S1130E50782F8827B85F39F0B93FCCF3869577951A
S1130E606795B395D9F73EF4909580957095619503
S1130E707F4F8F4F9F4F0895990F0008550FAA0B6E
S1130E80E0E8FEEF16161706E807F907C0F0121699
S1130E901306E407F50798F0621B730B840B950B9C
S1130EA039F40A2661F0232B242B252B21F40895F1
S1130EB00A2609F4A140A6958FEF811D811D08958E
S1130EC097F99F6780E870E060E00895882371F4E3
S1130ED0772321F09850872B762F07C0662311F4CF
S1130EE099270DC09051862B70E060E02AF09A9506
S1130EF0660F771F881FDAF7880F9695879597F9FD
S1130F0008959F3F31F0915020F487957795679528
S1130F10B795880F911D9695879597F908959FEF3A
S1130F2080EC089500240A9416161706180609067C
S1130F30089500240A94121613061406050608954B
S1130F40092E0394000C11F4882352F0BB0F40F4D3
S1130F50BF2B11F460FF04C06F5F7F4F8F4F9F4F13
S1130F60089557FD9058440F551F59F05F3F71F095
S1130F704795880F97FB991F61F09F3F79F08795FC
S1130F800895121613061406551FF2CF4695F1DF85
S1130F9008C0161617061806991FF1CF8695710515
S1130FA06105089408950E94B907A0F0BEE7B91737
S1130FB088F4BB279F3860F41616B11D672F782F6D
S1130FC08827985FF7CF869577956795B11D939598
S1130FD09639C8F30895E894BB2766277727CB0191
S1130FE097F908950E943C0708F48FEF08950E9432
S1130FF00A080C94A0070E94920738F00E949907EF
S113100020F0952311F00C9460070C948F071124A1
S11310100C94EC070E94B10770F3959FC1F3950FF0
S113102050E0551F629FF001729FBB27F00DB11D68
S1131030639FAA27F00DB11DAA1F649F6627B00DF8
S1131040A11D661F829F2227B00DA11D621F739FE1
S1131050B00DA11D621F839FA00D611D221F749FEF
S11310603327A00D611D231F849F600D211D822F36
S1131070762F6A2F11249F5750409AF0F1F088235D
S11310804AF0EE0FFF1FBB1F661F771F881F91508A
S11310905040A9F79E3F510580F00C9460070C94D2
S11310A0EC075F3FE4F3983ED4F386957795679514
S11310B0B795F795E7959F5FC1F7FE2B880F911DB4
S11310C09695879597F90895EE0FFF1F0590F49173
S10B10D0E02D0994F894FFCF10
S11310D801000200030004000500060007001501D2
S11310E816011200130014021A001B001E001F0030
S10F10F81C001D000000000600000006A3
S9030000FC
