S02500004F62737461636C652041766F6964616E636520526F626F742056312E302E73726563FD
S11300000C9431000C9444060C946D060C947C06FC
S11300100C944E000C9468080C944E000C944E0002
S11300200C944E000C94A8070C944E000C944E00B3
S11300300C944E000C944E000C944E000C944E0004
S11300400C944E000C944E000C944E000C944E00F4
S11300500C944E000A0815082B082008360841089D
S11300604C0811241FBECFE5D8E0DEBFCDBF11E0A0
S1130070A0E6B0E0E6E1F6E102C005900D92A831F9
S1130080B107D9F721E0A8E1B1E001C01D92AB347A
S1130090B207E1F70E9471030C94090B0C94000061
S11300A080913601813039F58091180190911901C0
S11300B0A0911A01B0911B0189399105A105B105DF
S11300C064F40196A11DB11D809318019093190148
S11300D0A0931A01B0931B01089510921801109275
S11300E0190110921A0110921B011092360181E03D
S11300F0809333010895823031F5809118019091F5
S11301001901A0911A01B0911B018E339105A1052B
S1130110B10564F40196A11DB11D8093180190935B
S11301201901A0931A01B0931B01089510921801AC
S11301301092190110921A0110921B0110923601AB
S113014081E08093350108950E9415050E943402D0
S11301500E9461010E94590880E590E00E946308B2
S11301600895809160008F51883290F58EE190E07F
S11301700E94E9000E94E00260E081E00E94D20255
S113018081EA90E00E94680260E082E00E94D2026C
S113019082EB90E00E94680269E082E00E94D20251
S11301A06091600070E080E090E00E947E026BE06D
S11301B082E00E94D2028AEB90E00E94680280E60C
S11301C090E00E944D03809160008F51883270F25C
S11301D00895CF92DF92EF92FF9220E030E048EC56
S11301E052E40E9418096093430170934401809380
S11301F045019093460120E030E040E853E40E943A
S1130200740A6B017C0160934701709348018093E9
S1130210490190934A019B01AC0160E070E080E8E1
S113022093E40E948F0860933701709338018093A0
S1130230390190933A01C701B6010E94620761E057
S11302408CE10E94780461E08DE10E947804609161
S11302503701709138018091390190913A010E94DF
S1130260620760E08CE10E94780460E08DE10E9406
S11302707804FF90EF90DF90CF90089580911C0157
S11302808F5F80931C0108950E94B5058EE391E071
S11302900E94A3070E949F0761E080E00E947A0702
S11302A01DBC1CBC08950E94C70510921C018EB58C
S11302B0887F8EBD08950E94D90508950E94350651
S11302C0089540E063E482E00E942A0540E063E48C
S11302D083E00E942A050895CF93C82F60E081E04F
S11302E00E94780460E082E00E947804C4FB6627E0
S11302F060F984E00E947804C5FB662760F985E014
S11303000E947804C6FB662760F986E00E947804A0
S11303106C2F661F6627661F87E00E94780461E0E1
S113032083E00E94780489EF90E00197F1F700C020
S1130330000060E083E00E94780489EF90E0019778
S1130340F1F700C000006C2F617084E00E94780413
S1130350C1FB662760F985E00E947804C2FB66272A
S113036060F986E00E947804C3FB662760F987E0A1
S11303700E94780461E083E00E94780489EF90E0B1
S11303800197F1F700C0000060E083E00E94780468
S113039089EF90E00197F1F700C00000CF91089534
S11303A0CF93C82F61E081E00E94780460E082E08E
S11303B00E947804C4FB662760F984E00E947804F4
S11303C0C5FB662760F985E00E947804C6FB6627B2
S11303D060F986E00E9478046C2F661F6627661F0A
S11303E087E00E94780461E083E00E94780489EF4A
S11303F090E00197F1F700C0000060E083E00E9404
S1130400780489EF90E00197F1F700C000006C2FA9
S1130410617084E00E947804C1FB662760F985E07E
S11304200E947804C2FB662760F986E00E94780483
S1130430C3FB662760F987E00E94780461E083E0EB
S11304400E94780489EF90E00197F1F700C0000062
S113045060E083E00E94780489EF90E00197F1F76F
S113046000C00000CF91089583ED90E30197F1F768
S113047000C0000082E00E946C0189EF90E00197C7
S1130480F1F700C0000088E20E946C0189EF90E05F
S11304900197F1F700C000008CE00E946C0189EF25
S11304A090E00197F1F700C0000081E00E946C0128
S11304B083EF91E00197F1F700C0000086E00E940D
S11304C06C0189EF90E00197F1F700C000000895F6
S11304D00F931F93CF93FC018081882359F08F01E0
S11304E0C0E00E94D001CF5FF801EC0FF11D8081C4
S11304F08111F7CFCF911F910F9108958F929F9201
S1130500AF92BF92EF92FF921F93CF93DF93CDB739
S1130510DEB760970FB6F894DEBF0FBECDBF61158E
S113052071058105910521F480E30E94D0012AC060
S113053010E00F2EFAE08F2E912CA12CB12CF02D6F
S1130540EE24E394F12CEC0EFD1EE10EF11CA5014A
S113055094010E94E10A605DF70160831F5F622FCE
S1130560732F842F952F611571058105910541F72E
S1130570112341F0FE01E10FF11D80810E94D001A1
S11305801150C1F760960FB6F894DEBF0FBECDBF11
S1130590DF91CF911F91FF90EF90BF90AF909F900C
S11305A08F900895813029F480E8860F0E946C01B1
S11305B00895823021F480EC860F0E946C01089526
S11305C060E08AE10E94780461E08BE10E94780493
S11305D060E08EE10E94780461E08FE10E9478047B
S11305E008950F931F93CF93DF9380912501811179
S11305F014C08CB59DB5A0E0B0E080932101909328
S11306002201A0932301B093240162E082E00E94BE
S11306105B0181E0809325013BC08130C9F58CB535
S11306209DB5A0E0B0E080931D0190931E01A093BE
S11306301F01B093200110922501109228011DBCC6
S11306401CBCC0912601D091270180911D0190917D
S11306501E01A0911F01B091200100912101109170
S113066022012091230130912401BC01CD01601BA2
S1130670710B820B930B2AE330E040E050E00E94C0
S1130680E10A288339834A835B8382E00E94530111
S1130690DF91CF911F910F9108952091280121118D
S11306A01FC0909327018093260161EF72E082E0DE
S11306B00E945E0163E082E00E945B0182E00E948E
S11306C0440161E08BE00E94780483E08A95F1F7AD
S11306D0000060E08BE00E94780481E080932801B0
S11306E008950E94A4000E94B100FDCF982F969512
S11306F096959695953008F0F9C08770613031F081
S113070008F4A4C0623009F451C0EFC09130C1F0C4
S113071028F0923039F19330B9F1E7C04AB321E0BF
S113072030E0B90102C0660F771F8A95E2F7CB016A
S11307308095942F98239ABB9BB389238BBBD5C0F8
S113074047B321E030E0B90102C0660F771F8A95F4
S1130750E2F7CB018095942F982397BB98B3892314
S113076088BBC3C044B321E030E0B90102C0660FC6
S1130770771F8A95E2F7CB018095942F982394BB39
S113078095B3892385BBB1C041B321E030E0B90101
S113079002C0660F771F8A95E2F7CB018095942FEC
S11307A0982391BB92B3892382BB9FC09130C1F03F
S11307B028F0923039F19330B9F197C04AB321E06F
S11307C030E0B90102C0660F771F8A95E2F7CB01CA
S11307D0962F909594239ABB9BB3892B8BBB85C092
S11307E047B321E030E0B90102C0660F771F8A9554
S11307F0E2F7CB01962F9095942397BB98B3892B5E
S113080088BB73C044B321E030E0B90102C0660F75
S1130810771F8A95E2F7CB01962F9095942394BB8A
S113082095B3892B85BB61C041B321E030E0B901A8
S113083002C0660F771F8A95E2F7CB01962F909539
S1130840942391BB92B3892B82BB4FC09130C1F0EA
S113085028F0923039F19330B9F147C04BB321E01D
S113086030E0B90102C0660F771F8A95E2F7CB0129
S1130870962F909594239BBB9AB3892B8ABB35C042
S113088048B321E030E0B90102C0660F771F8A95B2
S1130890E2F7CB01962F9095942398BB97B3892BBD
S11308A087BB23C045B321E030E0B90102C0660F25
S11308B0771F8A95E2F7CB01962F9095942395BBE9
S11308C094B3892B84BB11C042B321E030E0B90159
S11308D002C0660F771F8A95E2F7CB01962F909599
S11308E0942392BB91B3892B81BB089582E0089530
S11308F0982F969596959695953008F08EC063300E
S113090008F08DC08770613009F040C09130A1F0CB
S113091028F09230F9F0933059F183C04BB321E0C1
S113092030E0B90102C0660F771F8A95E2F7CB0168
S1130930842B8BBB80E0089548B321E030E0B901FB
S113094002C0660F771F8A95E2F7CB01842B88BB20
S113095080E0089545B321E030E0B90102C0660F9C
S1130960771F8A95E2F7CB01842B85BB80E008953D
S113097042B321E030E0B90102C0660F771F8A95C7
S1130980E2F7CB01842B82BB80E00895611144C05F
S11309909130A9F028F0923009F1933071F143C0FD
S11309A04BB321E030E0B90102C0660F771F8A958E
S11309B0E2F7CB01809584238BBB80E0089548B394
S11309C021E030E0B90102C0660F771F8A95E2F793
S11309D0CB018095842388BB80E0089545B321E052
S11309E030E0B90102C0660F771F8A95E2F7CB01A8
S11309F08095842385BB80E0089542B321E030E0F4
S1130A00B90102C0660F771F8A95E2F7CB01809582
S1130A10842382BB80E00895089582E0089583E0F2
S1130A20089580E0089580E008950F931F93CF9375
S1130A30DF93C1E6D0E007E810E0698188810E9475
S1130A4076032296C017D107C1F7DF91CF911F918A
S1130A500F910895623459F118F4613441F0089506
S1130A60633409F444C0643409F460C00895411146
S1130A700EC04BB321E030E0B90102C0660F771F0E
S1130A808A95E2F7CB01809584238BBB089541308E
S1130A9009F06AC04BB321E030E0B90102C0660F2F
S1130AA0771F8A95E2F7CB01842B8BBB0895411104
S1130AB00EC048B321E030E0B90102C0660F771FD1
S1130AC08A95E2F7CB018095842388BB0895413051
S1130AD009F04AC048B321E030E0B90102C0660F12
S1130AE0771F8A95E2F7CB01842B88BB08954111C7
S1130AF00EC045B321E030E0B90102C0660F771F94
S1130B008A95E2F7CB018095842385BB0895413013
S1130B1059F545B321E030E0B90102C0660F771FF3
S1130B208A95E2F7CB01842B85BB089541110EC051
S1130B3042B321E030E0B90102C0660F771F8A9505
S1130B40E2F7CB018095842382BB0895413061F4A0
S1130B5042B321E030E0B90102C0660F771F8A95E5
S1130B60E2F7CB01842B82BB0895813041F018F069
S1130B70823049F008958BB780648BBF08958BB79A
S1130B8080688BBF08958BB780628BBF08958130D6
S1130B9041F018F0823049F008958BB78F7B8BBFFA
S1130BA008958BB78F778BBF08958BB78F7D8BBFDD
S1130BB00895813049F120F0823009F449C0089544
S1130BC0613069F028F0623089F06330B1F0089543
S1130BD085B78E7F85BF85B78D7F85BF089585B71F
S1130BE0816085BF85B78D7F85BF089585B78E7F6A
S1130BF085BF85B7826085BF089585B7816085BF4D
S1130C0085B7826085BF0895613069F028F062304D
S1130C1089F06330B1F0089585B78B7F85BF85B7C0
S1130C20877F85BF089585B7846085BF85B7877F33
S1130C3085BF089585B78B7F85BF85B7886085BFDD
S1130C40089585B7846085BF85B7886085BF08959A
S1130C50623019F0633029F0089584B78F7B84BF24
S1130C60089584B7806484BF0895882319F082307E
S1130C7051F405C070932D0160932C010895709375
S1130C802B0160932A0108951F920F920FB60F92C1
S1130C9011242F933F934F935F936F937F938F937D
S1130CA09F93AF93BF93EF93FF93E0912C01F09147
S1130CB02D01309709F00995FF91EF91BF91AF9104
S1130CC09F918F917F916F915F914F913F912F9160
S1130CD00F900FBE0F901F9018951F920F920FB692
S1130CE00F9211248F9381E0809329018F910F90AB
S1130CF00FBE0F901F9018951F920F920FB60F9270
S1130D0011242F933F934F935F936F937F938F930C
S1130D109F93AF93BF93EF93FF93E0912A01F091D8
S1130D202B01309709F00995FF91EF91BF91AF9195
S1130D309F918F917F916F915F914F913F912F91EF
S1130D400F900FBE0F901F90189580911201813063
S1130D50F1F028F0823099F0843049F020C083B754
S1130D608F7B83BF83B7877F83BF84E0089583B776
S1130D70806483BF83B7877F83BF84E0089583B78C
S1130D808F7B83BF83B7886083BF84E0089583B774
S1130D90806483BF83B7886083BF84E0089581E063
S1130DA0089580911301823009F128F4882341F0D9
S1130DB0813089F03CC0853021F1863069F137C03B
S1130DC083B7816083BF83B78D7F83BF83B78B7FF6
S1130DD083BF84E0089583B7826083BF83B78E7F27
S1130DE083BF83B78B7F83BF84E0089583B781601B
S1130DF083BF83B7826083BF83B78B7F83BF84E065
S1130E00089583B7846083BF83B78D7F83BF83B71F
S1130E108E7F83BF84E0089583B7816083BF83B7E7
S1130E208D7F83BF83B7846083BF84E0089580E0AF
S1130E3008958F929F92AF92BF92CF92DF92EF92DA
S1130E40FF924B015C0120E030E0A9010E946F0A8F
S1130E501816ECF4C12CD12C760108B600FEFDCF97
S1130E6088B7816088BF20E030E040E85FE3C701D5
S1130E70B6010E9490086B017C019B01AC01C50185
S1130E80B4010E946F0A181644F384E012C020E0F3
S1130E9030E0A901C501B4010E941309181644F0F9
S1130EA008B600FEFDCF88B7816088BF84E001C02A
S1130EB082E0FF90EF90DF90CF90BF90AF909F9033
S1130EC08F900895CF930E94FC080E948A09C62F30
S1130ED00E94A506C2BF0E94D10660E070E080E8CF
S1130EE09FE30E94190713BE12BE88B7816088BFB2
S1130EF0CF910895882319F0833071F019C08FB50C
S1130F008E7F8FBD8FB58D7F8FBD8EB5877F8EBD54
S1130F108EB58F7E8EBD0CC08FB581608FBD8FB5B1
S1130F2082608FBD8EB588608EBD8EB580618EBDAA
S1130F308EB5887F8EBD8EB5682B6EBD089589B73A
S1130F40846089BF0895909331018093300108959E
S1130F501F920F920FB60F9211242F933F934F932A
S1130F605F936F937F938F939F93AF93BF93EF930D
S1130F70FF93E0913001F0913101309709F0099528
S1130F80FF91EF91BF91AF919F918F917F916F915D
S1130F905F914F913F912F910F900FBE0F901F9033
S1130FA01895809116018130F1F028F0823099F083
S1130FB0843049F020C085B58F7B85BD85B5877F9A
S1130FC085BD84E0089585B5806485BD85B5877F3A
S1130FD085BD84E0089585B58F7B85BD85B5886022
S1130FE085BD84E0089585B5806485BD85B5886038
S1130FF085BD84E0089581E00895E09117018E2F66
S113100090E08730910508F052C0FC01E65DFF4F87
S11310100C94030B85B5816085BD85B58D7F85BD39
S113102085B58B7F85BD84E0089585B5826085BDD7
S113103085B58E7F85BD85B58B7F85BD84E008959C
S113104085B5816085BD85B5826085BD85B58B7F9D
S113105085BD84E0089585B5846085BD85B58D7FA3
S113106085BD85B58E7F85BD84E0089585B5816095
S113107085BD85B58D7F85BD85B5846085BD84E0DE
S1131080089585B5846085BD85B58E7F85BD85B59C
S1131090826085BD84E0089585B5816085BD85B590
S11310A0826085BD85B5846085BD84E0089580E057
S11310B00895789489B7806489BF0E94D10714BCCD
S11310C00E94FD07089590932F0180932E010895A7
S11310D01F920F920FB60F9211242F933F934F93A9
S11310E05F936F937F938F939F93AF93BF93EF938C
S11310F0FF93E0912E01F0912F010995FF91EF915B
S1131100BF91AF919F918F917F916F915F914F911B
S11311103F912F910F900FBE0F901F90189550582C
S1131120BB27AA270E94A7080C941D0A0E940F0A35
S113113038F00E94160A20F039F49F3F19F426F47F
S11311400C940C0A0EF4E095E7FB0C94DD09E92FEE
S11311500E942E0A58F3BA1762077307840795078B
S113116020F079F4A6F50C94680A0EF4E0950B2EA1
S1131170BA2FA02D0B01B90190010C01CA01A001E5
S11311801124FF27591B99F0593F50F4503E68F140
S11311901A16F040A22F232F342F4427585FF3CF81
S11311A0469537952795A795F0405395C9F77EF452
S11311B01F16BA0B620B730B840BBAF09150A1F09B
S11311C0FF0FBB1F661F771F881FC2F70EC0BA0F21
S11311D0621F731F841F48F4879577956795B795A9
S11311E0F7959E3F08F0B0CF9395880F08F09927A4
S11311F0EE0F9795879508950E94500A90F09F37B7
S113120048F4911116F40C94690A60E070E080E8E7
S11312109FE3089526F01B16611D711D811D0C941A
S1131220E3090C94FE090E94B90908F481E00895C9
S11312300E942C090C941D0A0E94160A58F00E9460
S11312400F0A40F029F45F3F29F00C94DD09511195
S11312500C94690A0C940C0A0E942E0A68F39923D0
S1131260B1F3552391F3951B550BBB27AA2762179E
S11312707307840738F09F5F5F4F220F331F441FAB
S1131280AA1FA9F335D00E2E3AF0E0E832D09150DF
S11312905040E695001CCAF72BD0FE2F29D0660FCC
S11312A0771F881FBB1F261737074807AB07B0E80F
S11312B009F0BB0B802DBF01FF2793585F4F3AF015
S11312C09E3F510578F00C94DD090C94690A5F3F48
S11312D0E4F3983ED4F3869577956795B795F7959B
S11312E09F5FC9F7880F911D9695879597F9089583
S11312F0E1E0660F771F881FBB1F6217730784071F
S1131300BA0720F0621B730B840BBA0BEE1F88F72D
S1131310E09508950E94360A88F09F5798F0B92FF7
S11313209927B751B0F0E1F0660F771F881F991F16
S11313301AF0BA95C9F714C0B13091F00E94680A46
S1131340B1E008950C94680A672F782F8827B85F56
S113135039F0B93FCCF3869577956795B395D9F76E
S11313603EF490958095709561957F4F8F4F9F4F78
S11313700895990F0008550FAA0BE0E8FEEF161622
S11313801706E807F907C0F012161306E407F50775
S113139098F0621B730B840B950B39F40A2661F0E9
S11313A0232B242B252B21F408950A2609F4A1408C
S11313B0A6958FEF811D811D089597F99F6780E899
S11313C070E060E00895882371F4772321F0985049
S11313D0872B762F07C0662311F499270DC09051EF
S11313E0862B70E060E02AF09A95660F771F881FBD
S11313F0DAF7880F9695879597F908959F3F31F00E
S1131400915020F4879577956795B795880F911D2E
S11314109695879597F908959FEF80EC0895002499
S11314200A941616170618060906089500240A9445
S113143012161306140605060895092E0394000CCB
S113144011F4882352F0BB0F40F4BF2B11F460FF5A
S113145004C06F5F7F4F8F4F9F4F089557FD905883
S1131460440F551F59F05F3F71F04795880F97FB64
S1131470991F61F09F3F79F087950895121613061E
S11314801406551FF2CF4695F1DF08C0161617064D
S11314901806991FF1CF8695710561050894089582
S11314A00E94360AA0F0BEE7B91788F4BB279F381C
S11314B060F41616B11D672F782F8827985FF7CF31
S11314C0869577956795B11D93959639C8F30895D8
S11314D0E894BB2766277727CB0197F908950E94E4
S11314E0B90908F48FEF08950E94870A0C941D0A25
S11314F00E940F0A38F00E94160A20F0952311F07A
S11315000C94DD090C940C0A11240C94690A0E94B1
S11315102E0A70F3959FC1F3950F50E0551F629FFB
S1131520F001729FBB27F00DB11D639FAA27F00D38
S1131530B11DAA1F649F6627B00DA11D661F829F5F
S11315402227B00DA11D621F739FB00DA11D621F44
S1131550839FA00D611D221F749F3327A00D611D61
S1131560231F849F600D211D822F762F6A2F112443
S11315709F5750409AF0F1F088234AF0EE0FFF1F76
S1131580BB1F661F771F881F91505040A9F79E3FCD
S1131590510580F00C94DD090C94690A5F3FE4F373
S11315A0983ED4F3869577956795B795F795E79523
S11315B09F5FC1F7FE2B880F911D9695879597F92C
S11315C00895A1E21A2EAA1BBB1BFD010DC0AA1F80
S11315D0BB1FEE1FFF1FA217B307E407F50720F098
S11315E0A21BB30BE40BF50B661F771F881F991F13
S11315F01A9469F760957095809590959B01AC015C
S1131600BD01CF010895EE0FFF1F0590F491E02D69
S10916100994F894FFCFD9
S11316162801000200030004000500060007001567
S11316260116011200130014021A001B001E001FEB
S1131636001C001D000000536574204465662E20BE
S1131646526F742E005269676874004C6566742084
S11316560053706565643A333025204469723A2034
S11316664600446973742E3A2000636D0053706516
S113167665643A353025204469723A204600537031
S11316866565643A333025204469723A2053005321
S1131696706565643A333025204469723A205200F5
S11316A653706565643A333025204469723A204C98
S11316B60053706565643A333025204469723A20D4
S10B16C64200000600000006CA
S9030000FC
