:100000000C9432000C94E40A0C940D0B0C941C0B11
:100010000C944F000C941E0E0C944F000C944F0047
:100020000C944F000C94E50C0C944F000C948E0C27
:100030000C944F000C944F000C944F000C944F0004
:100040000C944F000C944F000C944F000C944F00F4
:100050000C944F00510D9E0D5C0D720D670D7D0DC2
:10006000880D930D11241FBECFE5D8E0DEBFCDBFB4
:1000700011E0A0E6B0E0ECEFF1E202C005900D92D5
:10008000AA34B107D9F721E0AAE4B1E001C01D927A
:10009000AF38B207E1F70E9462070C94FC100C9491
:1000A000000080917801813079F580914D01909127
:1000B0004E01A0914F01B091500189399105A105E0
:1000C000B105A4F480914D0190914E01A0914F0192
:1000D000B09150010196A11DB11D80934D019093E7
:1000E0004E01A0934F01B0935001089510924D011D
:1000F00010924E0110924F0110925001109278010F
:1001000081E0809355010895823071F580914D0111
:1001100090914E01A0914F01B09150010A97A10515
:10012000B105A4F480914D0190914E01A0914F0131
:10013000B09150010196A11DB11D80934D01909386
:100140004E01A0934F01B0935001089510924D01BC
:1001500010924E0110924F011092500110927801AE
:1001600081E0809354010895833069F580914D01B9
:1001700090914E01A0914F01B09150014E97A10571
:10018000B105A4F480914D0190914E01A0914F01D1
:10019000B09150010196A11DB11D80934D01909326
:1001A0004E01A0934F01B0935001089510924D015C
:1001B00010924E0110924F0110925001109278014E
:1001C00081E08093530108950E9455090E943907E8
:1001D0000E94D4050E949B04089562E081E00E9481
:1001E0007C068FE890E00E94080666E082E00E94AC
:1001F0007C068DE990E00E940806809152018F5F95
:1002000080935201089582E690E00E94A6048091B6
:100210006200833041F481E0809351018093640057
:1002200081E180936200089580914C0181110CC09E
:1002300083E0809378010E940F0E81E590E00E9498
:10024000190E81E080934C0180915301811135C0DA
:1002500061E670E084E10E943904809161008111BF
:1002600041C08091550181113DC061E670E084E19B
:100270000E9439048091610081112FC08091550145
:10028000882399F32AC066E082E00E947C0683EA14
:1002900090E00E94080681E080936000089581301C
:1002A00009F566E082E00E947C068DE990E00E94FC
:1002B000080682E0809360000895809153018130A8
:1002C00089F410925301809152018F5F8093520103
:1002D0000E943A0D10924C01089580916000823086
:1002E000F1F6D1CF089580914B0181112DC00E946C
:1002F0000F0E81E590E00E94190E82E08093780154
:1003000081E080934B010E94720660E081E00E94D0
:100310007C0689EA90E00E94080660E082E00E9484
:100320007C0680916000823029F485EB90E00E9489
:10033000080604C085EC90E00E9408060E940F0E9B
:1003400081E590E00E94190E80915401813059F4AA
:100350000E943A0D10925401809152018F5F809358
:10036000520110924B01089581E0809378018091B1
:100370004A0181110BC00E940F0E81E590E00E949E
:10038000190E81E080934A010E94720680917901E2
:1003900090917A018734910508F481C080915101D0
:1003A00081117DC089E791E00E943E07809155014F
:1003B000811131C080916300813041F40E948A062E
:1003C0008EE10E94940B82E08093630060E081E004
:1003D0000E947C0683ED90E00E94080660E082E0C7
:1003E0000E947C0684EE90E00E94080669E082E0AC
:1003F0000E947C066091790170917A0180E090E022
:100400000E941E066BE082E00E947C068CEE90E06B
:100410000E94080636C080915501813091F5809187
:100420006300823041F40E948A0682E30E94940BAA
:1004300081E08093630060E081E00E947C068FEEA3
:1004400090E00E94080660E082E00E947C0684EE54
:1004500090E00E94080669E082E00E947C066091BC
:10046000790170917A0180E090E00E941E066BE0B5
:1004700082E00E947C068CEE90E00E9408060E94BA
:100480003A0D0E9403018091790190917A0187349D
:10049000910528F080915101882309F483CF1092AF
:1004A000550110924A0181E08093630008950E94F3
:1004B00072068091790190917A014F97889708F0A0
:1004C00048C080915101811144C060E081E00E94E8
:1004D0007C0683ED90E00E94080660E082E00E94C6
:1004E0007C0684EE90E00E94080669E082E00E94AB
:1004F0007C066091790170917A0180E090E00E9421
:100500001E066BE082E00E947C068CEE90E00E946A
:10051000080680916300813041F40E948A068EE1D2
:100520000E94940B82E0809363000E948A0689E710
:1005300091E00E943E070E94030180917901909111
:100540007A014F97889728F480915101882309F404
:10055000BCCF81E08093630008950E94AC060E94A6
:1005600072068091790190917A0145970A9708F077
:1005700089C080915101811185C0809160008230D5
:10058000B9F589E791E00E943E0760E081E00E94B2
:100590007C0680E091E00E94080660E082E00E9414
:1005A0007C0684EE90E00E94080669E082E00E94EA
:1005B0007C066091790170917A0180E090E00E9460
:1005C0001E066BE082E00E947C068CEE90E00E94AA
:1005D000080680916300813041F48EE10E94940B03
:1005E0000E945A0482E0809363000E94AC0638C0E7
:1005F0008130B1F589E791E00E943E0760E081E03B
:100600000E947C0681E191E00E94080660E081E0A2
:100610000E947C0684EE90E00E94080669E082E079
:100620000E947C066091790170917A0180E090E0EF
:100630000E941E066BE082E00E947C068CEE90E039
:100640000E94080680916300813041F48EE10E948F
:10065000940B0E94690482E0809363000E94AC06C0
:1006600089E791E00E943E070E9403018091790191
:1006700090917A0145970A9728F480915101882337
:1006800009F47BCF81E0809363000895CF930E94AB
:10069000AC060E94720660E081E00E947C0682E265
:1006A00091E00E94080660E082E00E947C0684EEF1
:1006B00090E00E94080669E082E00E947C0660915A
:1006C000790170917A0180E090E00E941E066BE053
:1006D00082E00E947C068CEE90E00E9408062FEFDC
:1006E00089E698E1215080409040E1F700C0000089
:1006F0000E9472068091790190917A01459708F0E5
:1007000044C080915101811140C0C2E080916300DA
:10071000813039F40E949B068EE10E94940BC093B5
:10072000630060E081E00E947C0683E391E00E9428
:10073000080660E08C2F0E947C0684EE90E00E9408
:10074000080669E08C2F0E947C0660917901709107
:100750007A0180E090E00E941E066BE08C2F0E94E0
:100760007C068CEE90E00E94080689E791E00E94EA
:100770003E070E9403018091790190917A0145978B
:1007800020F480915101882309F281E08093630075
:10079000CF910895C2E080916400811151C084E638
:1007A00090E00E94A6048091520181110BC00E942A
:1007B000ED0080915201833071F7809151018823BF
:1007C00079F0E9CF80915201813019F40E9414012F
:1007D000F0CF80915201823061F70E947301E9CF1E
:1007E00089E791E00E943E078091790190917A011A
:1007F0008734910518F00E94B40116C09C012F5156
:1008000031092832310518F40E9457020DC09C01AD
:10081000255131092A30310518F40E94AD0204C077
:10082000459710F40E9446030E94030180915201F3
:10083000833009F0B0CF80915101882389F2ABCF8A
:1008400080915101813081F40E9472060E94AC06B1
:1008500080E00E94940B0E943A0DC09360001092B9
:1008600051011092520197CF84E690E00E94A604B5
:1008700092CF883220F40E94090980E0089581E037
:10088000089586E79BE0AFE3B0E480938301909303
:100890008401A0938501B093860184E59EECAEE6C9
:1008A000B0E480937F0190938001A0938101B09385
:1008B000820108950E9441040E94BD0660917F015B
:1008C0007091800180918101909182010E94E90DD7
:1008D00008950E9441040E94CE0660917F017091AC
:1008E000800180918101909182010E94E90D08951B
:1008F000809156018F5F8093560108950E94550A9A
:100900001DBC1CBC88E794E00E94E00C0E94DC0C3B
:1009100062E080E00E94B70C08950E94670A10927E
:1009200056018EB5887F8EBD08950E94790A08957C
:100930000E94D50A089540E063E482E00E946A09BB
:1009400040E063E483E00E946A0908957F928F92F9
:100950009F92AF92BF92CF92DF92EF92FF920F934E
:100960001F93CF93DF931F92CDB7DEB75C0119823F
:100970000F2EF5E6CF2EF0E0DF2EF02D02E0912CC9
:1009800088248394782C40E063E482E00E946A0922
:1009900040E063E483E00E946A09482D63E4802F0D
:1009A0000E946A09760115E0AE014F5F5F4F63E474
:1009B000812F0E94F5098981813059F48091570176
:1009C00081110AC0F7018081F5018083709257017F
:1009D00003C0811101C093941F5FFFEFEF1AFF0A5C
:1009E000173011F782E0981202C0109257010F5F82
:1009F000E2E0CE0ED11C043031F60F90DF91CF91A2
:100A00001F910F91FF90EF90DF90CF90BF90AF902C
:100A10009F908F907F900895CF93C82F60E081E0E2
:100A20000E946C0860E082E00E946C08C4FB6627AC
:100A300060F984E00E946C08C5FB662760F985E0D8
:100A40000E946C08C6FB662760F986E00E946C086D
:100A50006C2F661F6627661F87E00E946C0861E0A6
:100A600083E00E946C0889EF90E00197F1F700C0E5
:100A7000000060E083E00E946C0889EF90E001973D
:100A8000F1F700C000006C2F617084E00E946C08D8
:100A9000C1FB662760F985E00E946C08C2FB6627EF
:100AA00060F986E00E946C08C3FB662760F987E066
:100AB0000E946C0861E083E00E946C0889EF90E07E
:100AC0000197F1F700C0000060E083E00E946C082D
:100AD00089EF90E00197F1F700C00000CF910895F1
:100AE000CF93C82F61E081E00E946C0860E082E053
:100AF0000E946C08C4FB662760F984E00E946C08C1
:100B0000C5FB662760F985E00E946C08C6FB662776
:100B100060F986E00E946C086C2F661F6627661FCE
:100B200087E00E946C0861E083E00E946C0889EF16
:100B300090E00197F1F700C0000060E083E00E94C0
:100B40006C0889EF90E00197F1F700C000006C2F6E
:100B5000617084E00E946C08C1FB662760F985E043
:100B60000E946C08C2FB662760F986E00E946C0850
:100B7000C3FB662760F987E00E946C0861E083E0B0
:100B80000E946C0889EF90E00197F1F700C0000027
:100B900060E083E00E946C0889EF90E00197F1F734
:100BA00000C00000CF91089583ED90E30197F1F725
:100BB00000C0000082E00E940C0589EF90E00197E0
:100BC000F1F700C0000088E20E940C0589EF90E078
:100BD0000197F1F700C000008CE00E940C0589EF3E
:100BE00090E00197F1F700C0000081E00E940C0541
:100BF00083EF91E00197F1F700C0000086E00E94CA
:100C00000C0589EF90E00197F1F700C0000008950E
:100C10000F931F93CF93FC018081882359F08F019C
:100C2000C0E00E947005CF5FF801EC0FF11D8081DC
:100C30008111F7CFCF911F910F9108958F929F92BD
:100C4000AF92BF92EF92FF921F93CF93DF93CDB7F6
:100C5000DEB760970FB6F894DEBF0FBECDBF61154B
:100C600071058105910521F480E30E9470052AC079
:100C700010E00F2EFAE08F2E912CA12CB12CF02D2C
:100C8000EE24E394F12CEC0EFD1EE10EF11CA50107
:100C900094010E94D410605DF70160831F5F622F92
:100CA000732F842F952F611571058105910541F7EB
:100CB000112341F0FE01E10FF11D80810E947005BA
:100CC0001150C1F760960FB6F894DEBF0FBECDBFCE
:100CD000DF91CF911F91FF90EF90BF90AF909F90C9
:100CE0008F90089581E00E940C0583EF91E00197B9
:100CF000F1F700C000000895813029F480E8860FE4
:100D00000E940C050895823021F480EC860F0E9429
:100D10000C05089560E08AE10E946C0861E08BE1B7
:100D20000E946C0860E08EE10E946C0861E08FE137
:100D30000E946C08089561E08AE10E946C0860E0FE
:100D40008BE10E946C0861E08EE10E946C0860E01B
:100D50008FE10E946C08089560E08AE10E946C08AF
:100D600060E08BE10E946C0860E08EE10E946C08FC
:100D700060E08FE10E946C08089561E08AE10E94C2
:100D80006C0860E08BE10E946C0860E08EE10E94DC
:100D90006C0861E08FE10E946C08089560E08AE1D0
:100DA0000E946C0861E08BE10E946C0861E08EE1BA
:100DB0000E946C0860E08FE10E946C0808950F9318
:100DC0001F93CF93DF9380916001811114C08CB584
:100DD0009DB5A0E0B0E080935C0190935D01A0938D
:100DE0005E01B0935F0162E082E00E94950481E0C1
:100DF0008093600139C08130B9F58CB59DB5A0E014
:100E0000B0E08093580190935901A0935A01B09398
:100E10005B0182E00E948D0410926001C09161012B
:100E2000D09162018091580190915901A0915A018D
:100E3000B0915B0100915C0110915D0120915E0118
:100E400030915F01BC01CD01601B710B820B930BD4
:100E50002AE330E040E050E00E94D4102883398338
:100E60004A835B8310926301DF91CF911F910F91B1
:100E7000089560E08BE00E946A0708952091630165
:100E800021111FC090936201809361016FED76E0A4
:100E900082E00E94980463E082E00E94950482E070
:100EA0000E947E0461E08BE00E946C088AE18A95D2
:100EB000F1F700C060E08BE00E946C0881E0809355
:100EC0006301089578940E94E4000E94CA0380E0C0
:100ED00090E00895982F969596959695953008F000
:100EE000F9C08770613031F008F4A4C0623009F4B1
:100EF00051C0EFC09130C1F028F0923039F19330F9
:100F0000B9F1E7C04AB321E030E0B90102C0660F91
:100F1000771F8A95E2F7CB018095942F98239ABB8F
:100F20009BB389238BBBD5C047B321E030E0B90127
:100F300002C0660F771F8A95E2F7CB018095942F48
:100F4000982397BB98B3892388BBC3C044B321E0DF
:100F500030E0B90102C0660F771F8A95E2F7CB0136
:100F60008095942F982394BB95B3892385BBB1C0FA
:100F700041B321E030E0B90102C0660F771F8A95C6
:100F8000E2F7CB018095942F982391BB92B38923EC
:100F900082BB9FC09130C1F028F0923039F193307C
:100FA000B9F197C04AB321E030E0B90102C0660F41
:100FB000771F8A95E2F7CB01962F909594239ABBE1
:100FC0009BB3892B8BBB85C047B321E030E0B901CF
:100FD00002C0660F771F8A95E2F7CB01962F909596
:100FE000942397BB98B3892B88BB73C044B321E08B
:100FF00030E0B90102C0660F771F8A95E2F7CB0196
:10100000962F9095942394BB95B3892B85BB61C093
:1010100041B321E030E0B90102C0660F771F8A9525
:10102000E2F7CB01962F9095942391BB92B3892B35
:1010300082BB4FC09130C1F028F0923039F193302B
:10104000B9F147C04BB321E030E0B90102C0660FEF
:10105000771F8A95E2F7CB01962F909594239BBB3F
:101060009AB3892B8ABB35C048B321E030E0B9017F
:1010700002C0660F771F8A95E2F7CB01962F9095F5
:10108000942398BB97B3892B87BB23C045B321E03A
:1010900030E0B90102C0660F771F8A95E2F7CB01F5
:1010A000962F9095942395BB94B3892B84BB11C044
:1010B00042B321E030E0B90102C0660F771F8A9584
:1010C000E2F7CB01962F9095942392BB91B3892B95
:1010D00081BB089582E00895982F969596959695F0
:1010E000953008F08EC0633008F08DC08770613095
:1010F00009F040C09130A1F028F09230F9F093301F
:1011000059F183C04BB321E030E0B90102C0660F52
:10111000771F8A95E2F7CB01842B8BBB80E0089583
:1011200048B321E030E0B90102C0660F771F8A950D
:10113000E2F7CB01842B88BB80E0089545B321E022
:1011400030E0B90102C0660F771F8A95E2F7CB0144
:10115000842B85BB80E0089542B321E030E0B901E3
:1011600002C0660F771F8A95E2F7CB01842B82BB02
:1011700080E00895611144C09130A9F028F09230C8
:1011800009F1933071F143C04BB321E030E0B90174
:1011900002C0660F771F8A95E2F7CB018095842302
:1011A0008BBB80E0089548B321E030E0B90102C074
:1011B000660F771F8A95E2F7CB018095842388BB61
:1011C00080E0089545B321E030E0B90102C0660F28
:1011D000771F8A95E2F7CB018095842385BB80E059
:1011E000089542B321E030E0B90102C0660F771FD5
:1011F0008A95E2F7CB018095842382BB80E0089535
:10120000089582E0089583E0089580E0089580E0E5
:101210000895982F969596959695953008F041C02B
:1012200087709130A1F028F09230F9F0933059F1A5
:101230003AC029B330E0A90102C0559547958A9577
:10124000E2F7CA018170FB01808380E0089526B334
:1012500030E0A90102C0559547958A95E2F7CA0189
:101260008170FB01808380E0089523B330E0A90101
:1012700002C0559547958A95E2F7CA018170FB0136
:10128000808380E0089520B330E0A90102C0559525
:1012900047958A95E2F7CA018170FB01808380E05F
:1012A000089582E0089580E008950F931F93CF93EF
:1012B000DF93C9E6D0E00FE810E0698188810E94E1
:1012C0006A072296C017D107C1F7DF91CF911F910E
:1012D0000F910895623459F118F4613441F0089582
:1012E000633409F444C0643409F460C008954111C2
:1012F0000EC04BB321E030E0B90102C0660F771F8A
:101300008A95E2F7CB01809584238BBB0895413009
:1013100009F06AC04BB321E030E0B90102C0660FAA
:10132000771F8A95E2F7CB01842B8BBB089541117F
:101330000EC048B321E030E0B90102C0660F771F4C
:101340008A95E2F7CB018095842388BB08954130CC
:1013500009F04AC048B321E030E0B90102C0660F8D
:10136000771F8A95E2F7CB01842B88BB0895411142
:101370000EC045B321E030E0B90102C0660F771F0F
:101380008A95E2F7CB018095842385BB089541308F
:1013900059F545B321E030E0B90102C0660F771F6F
:1013A0008A95E2F7CB01842B85BB089541110EC0CD
:1013B00042B321E030E0B90102C0660F771F8A9581
:1013C000E2F7CB018095842382BB0895413061F41C
:1013D00042B321E030E0B90102C0660F771F8A9561
:1013E000E2F7CB01842B82BB08956234F9F018F444
:1013F000613439F00895633471F1643409F440C004
:10140000089569B321E030E0082E02C0220F331F97
:101410000A94E2F770E026233723B90102C07595DC
:1014200067958A95E2F7FA016083089566B321E033
:1014300030E0082E02C0220F331F0A94E2F770E05A
:1014400026233723B90102C0759567958A95E2F77F
:10145000FA016083089563B321E030E0082E02C0F2
:10146000220F331F0A94E2F770E026233723B901D5
:1014700002C0759567958A95E2F7FA016083089531
:1014800060B321E030E0082E02C0220F331F0A941F
:10149000E2F770E026233723B90102C075956795FE
:1014A0008A95E2F7FA0160830895813041F018F0DF
:1014B000823049F008958BB780648BBF08958BB755
:1014C00080688BBF08958BB780628BBF0895813091
:1014D00041F018F0823049F008958BB78F7B8BBFB5
:1014E00008958BB78F778BBF08958BB78F7D8BBF98
:1014F0000895813049F120F0823009F449C00895FF
:10150000613069F028F0623089F06330B1F00895FD
:1015100085B78E7F85BF85B78D7F85BF089585B7D9
:10152000816085BF85B78D7F85BF089585B78E7F24
:1015300085BF85B7826085BF089585B7816085BF07
:1015400085B7826085BF0895613069F028F0623008
:1015500089F06330B1F0089585B78B7F85BF85B77B
:10156000877F85BF089585B7846085BF85B7877FEE
:1015700085BF089585B78B7F85BF85B7886085BF98
:10158000089585B7846085BF85B7886085BF089555
:10159000623019F0633029F0089584B78F7B84BFDF
:1015A000089584B7806484BF0895882319F0823039
:1015B00051F405C0709368016093670108957093BA
:1015C00066016093650108951F920F920FB60F9206
:1015D00011242F933F934F935F936F937F938F9338
:1015E0009F93AF93BF93EF93FF93E0916701F091C7
:1015F0006801309709F00995FF91EF91BF91AF9184
:101600009F918F917F916F915F914F913F912F911A
:101610000F900FBE0F901F9018951F920F920FB64C
:101620000F9211248F9381E0809364018F910F902A
:101630000FBE0F901F9018951F920F920FB60F922A
:1016400011242F933F934F935F936F937F938F93C7
:101650009F93AF93BF93EF93FF93E0916501F09158
:101660006601309709F00995FF91EF91BF91AF9115
:101670009F918F917F916F915F914F913F912F91AA
:101680000F900FBE0F901F9018950F931F9380918E
:1016900069018F5F809369018091690140916A01BE
:1016A00050916B0160916C0170916D0190E0A0E030
:1016B000B0E084179507A607B70749F461E08CE10D
:1016C0000E946C0861E08DE10E946C0828C0409186
:1016D000690100916A0110916B0120916C013091B8
:1016E0006D0180916E0190916F01A0917001B09198
:1016F000710150E060E070E0800F911FA21FB31FE6
:10170000481759076A077B0751F460E08CE10E9493
:101710006C0860E08DE10E946C081092690186E01F
:1017200082BF1F910F910895CF92DF92EF92FF92A7
:10173000CF93C82F682F70E080E090E00E946F0F79
:1017400020E030E048EC52E40E94CE0E2AE037ED73
:1017500043E25BE30E94671020E030E04AE754E494
:101760000E94671020E030E04AE754E40E946710CE
:101770000E94400F0F2EFAEFCF2ED12CE12CF12C2E
:10178000F02DA70196010E94D41020936E01309392
:101790006F01409370015093710164E670E06C1B1F
:1017A0007109072E000C880B990B0E94710F20E025
:1017B00030E048EC52E40E94CE0E2AE037ED43E2DE
:1017C0005BE30E94671020E030E04AE754E40E94A7
:1017D000671020E030E04AE754E40E9467100E945E
:1017E000400FA70196010E94D41020936A01309304
:1017F0006B0140936C0150936D011092690185E477
:101800009BE00E94890C0E94850C86E082BF0E94AA
:10181000110C0E943D0CCF91FF90EF90DF90CF9084
:101820000895809144018130F1F028F0823099F0E0
:10183000843049F020C083B78F7B83BF83B7877F15
:1018400083BF84E0089583B7806483BF83B7877FB5
:1018500083BF84E0089583B78F7B83BF83B788609D
:1018600083BF84E0089583B7806483BF83B78860B3
:1018700083BF84E0089581E008958091450183301D
:1018800009F128F4882341F0823089F03CC0863089
:1018900021F1873069F137C083B7816083BF83B797
:1018A0008D7F83BF83B78B7F83BF84E0089583B729
:1018B000826083BF83B78E7F83BF83B78B7F83BFF5
:1018C00084E0089583B7816083BF83B7826083BF5C
:1018D00083B78B7F83BF84E0089583B7846083BF21
:1018E00083B78D7F83BF83B78E7F83BF84E00895E6
:1018F00083B7816083BF83B78D7F83BF83B78460E5
:1019000083BF84E0089580E0089589B7816089BF2E
:101910000895909377018093760108951F920F9216
:101920000FB60F9211242F933F934F935F936F93B2
:101930007F938F939F93AF93BF93EF93FF93E09128
:101940007601F0917701309709F00995FF91EF91B9
:10195000BF91AF919F918F917F916F915F914F91C7
:101960003F912F910F900FBE0F901F9018958823D5
:1019700019F0833071F019C08FB58E7F8FBD8FB590
:101980008D7F8FBD8EB5877F8EBD8EB58F7E8EBDD0
:101990000CC08FB581608FBD8FB582608FBD8EB555
:1019A00088608EBD8EB580618EBD8EB5887F8EBD00
:1019B0008EB5682B6EBD089589B7846089BF089580
:1019C000909375018093740108951F920F920FB642
:1019D0000F9211242F933F934F935F936F937F93B5
:1019E0008F939F93AF93BF93EF93FF93E091740115
:1019F000F0917501309709F00995FF91EF91BF9132
:101A0000AF919F918F917F916F915F914F913F9196
:101A10002F910F900FBE0F901F9018958091480145
:101A20008130F1F028F0823099F0843049F020C004
:101A300085B58F7B85BD85B5877F85BD84E008959D
:101A400085B5806485BD85B5877F85BD84E00895B3
:101A500085B58F7B85BD85B5886085BD84E008959B
:101A600085B5806485BD85B5886085BD84E00895B1
:101A700081E0089585B58E7F85BD85B58D7F85BD57
:101A800085B58B7F85BD0895E09149018E2F90E04B
:101A90008830910508F052C0FC01E65DFF4F0C94C0
:101AA000F61085B5816085BD85B58D7F85BD85B511
:101AB0008B7F85BD84E0089585B5826085BD85B541
:101AC0008E7F85BD85B58B7F85BD84E0089585B506
:101AD000816085BD85B5826085BD85B58B7F85BDFF
:101AE00084E0089585B5846085BD85B58D7F85BD0D
:101AF00085B58E7F85BD84E0089585B5816085BDFF
:101B000085B58D7F85BD85B5846085BD84E00895EC
:101B100085B5846085BD85B58E7F85BD85B58260C0
:101B200085BD84E0089585B5816085BD85B58260F9
:101B300085BD85B5846085BD84E0089580E0089505
:101B40008F929F92AF92BF92CF92DF92EF92FF92CD
:101B50004B015C0120E030E0A9010E9462101816E0
:101B6000ECF4C12CD12C760108B606FEFDCF88B767
:101B7000806488BF20E030E040E85FE3C701B60141
:101B80000E94460E6B017C019B01AC01C501B401B2
:101B90000E946210181644F384E012C020E030E086
:101BA000A901C501B4010E94C90E181644F008B677
:101BB00006FEFDCF88B7806488BF84E001C082E064
:101BC000FF90EF90DF90CF90BF90AF909F908F905D
:101BD0000895CF92DF92EF92FF9220E030E04AE743
:101BE00054E40E94CE0E2DEB37E346E859E30E9401
:101BF000CE0E0E94B20E6B017C0180E090E00E944C
:101C00000E0D14BC80E090E00E94440DC701B601A7
:101C10000E94A00DFF90EF90DF90CF9008957894F0
:101C200089B7806489BF0E940E0D14BC0E94440DC8
:101C30000895909373018093720108951F920F92FB
:101C40000FB60F9211242F933F934F935F936F938F
:101C50007F938F939F93AF93BF93EF93FF93E09105
:101C60007201F09173010995FF91EF91BF91AF91CE
:101C70009F918F917F916F915F914F913F912F91A4
:101C80000F900FBE0F901F9018955058BB27AA2792
:101C90000E945D0E0C9410100E94021038F00E94F9
:101CA000091020F039F49F3F19F426F40C94FF0F2B
:101CB0000EF4E095E7FB0C94D00FE92F0E94211061
:101CC00058F3BA17620773078407950720F079F471
:101CD000A6F50C945B100EF4E0950B2EBA2FA02DF8
:101CE0000B01B90190010C01CA01A0011124FF27C9
:101CF000591B99F0593F50F4503E68F11A16F040C4
:101D0000A22F232F342F4427585FF3CF46953795C2
:101D10002795A795F0405395C9F77EF41F16BA0B87
:101D2000620B730B840BBAF09150A1F0FF0FBB1F35
:101D3000661F771F881FC2F70EC0BA0F621F731F7E
:101D4000841F48F4879577956795B795F7959E3FDB
:101D500008F0B0CF9395880F08F09927EE0F97956C
:101D6000879508950E94431090F09F3748F4911191
:101D700016F40C945C1060E070E080E89FE3089536
:101D800026F01B16611D711D811D0C94D60F0C943D
:101D9000F10F0E94AC0F08F481E008950E94E20E5A
:101DA0000C9410100E94091058F00E94021040F08C
:101DB00029F45F3F29F00C94D00F51110C945C1062
:101DC0000C94FF0F0E94211068F39923B1F355235F
:101DD00091F3951B550BBB27AA276217730784073E
:101DE00038F09F5F5F4F220F331F441FAA1FA9F3D4
:101DF00035D00E2E3AF0E0E832D091505040E695C2
:101E0000001CCAF72BD0FE2F29D0660F771F881F22
:101E1000BB1F261737074807AB07B0E809F0BB0B15
:101E2000802DBF01FF2793585F4F3AF09E3F510529
:101E300078F00C94D00F0C945C105F3FE4F3983E64
:101E4000D4F3869577956795B795F7959F5FC9F712
:101E5000880F911D9695879597F90895E1E0660F93
:101E6000771F881FBB1F621773078407BA0720F00C
:101E7000621B730B840BBA0BEE1F88F7E095089575
:101E80000E94291088F09F5798F0B92F9927B751D1
:101E9000B0F0E1F0660F771F881F991F1AF0BA950E
:101EA000C9F714C0B13091F00E945B10B1E0089501
:101EB0000C945B10672F782F8827B85F39F0B93FF3
:101EC000CCF3869577956795B395D9F73EF49095C1
:101ED0008095709561957F4F8F4F9F4F0895E8943F
:101EE00009C097FB3EF490958095709561957F4F62
:101EF0008F4F9F4F9923A9F0F92F96E9BB27939510
:101F0000F695879577956795B795F111F8CFFAF41F
:101F1000BB0F11F460FF1BC06F5F7F4F8F4F9F4F50
:101F200016C0882311F096E911C0772321F09EE8AE
:101F3000872F762F05C0662371F096E8862F70E014
:101F400060E02AF09A95660F771F881FDAF7880FEE
:101F50009695879597F90895990F0008550FAA0B44
:101F6000E0E8FEEF16161706E807F907C0F01216AC
:101F70001306E407F50798F0621B730B840B950BAF
:101F800039F40A2661F0232B242B252B21F4089504
:101F90000A2609F4A140A6958FEF811D811D0895A1
:101FA00097F99F6780E870E060E00895882371F4F6
:101FB000772321F09850872B762F07C0662311F4E2
:101FC00099270DC09051862B70E060E02AF09A9519
:101FD000660F771F881FDAF7880F9695879597F910
:101FE00008959F3F31F0915020F48795779567953C
:101FF000B795880F911D9695879597F908959FEF4E
:1020000080EC089500240A9416161706180609068F
:10201000089500240A94121613061406050608955E
:10202000092E0394000C11F4882352F0BB0F40F4E6
:10203000BF2B11F460FF04C06F5F7F4F8F4F9F4F26
:10204000089557FD9058440F551F59F05F3F71F0A8
:102050004795880F97FB991F61F09F3F79F087950F
:102060000895121613061406551FF2CF4695F1DF98
:1020700008C0161617061806991FF1CF8695710528
:102080006105089408950E942910A0F0BEE7B917D1
:1020900088F4BB279F3860F41616B11D672F782F80
:1020A0008827985FF7CF869577956795B11D9395AB
:1020B0009639C8F30895E894BB2766277727CB01A4
:1020C00097F908950E94AC0F08F48FEF08950E94CD
:1020D0007A100C9410100E94021038F00E9409101F
:1020E00020F0952311F00C94D00F0C94FF0F1124C5
:1020F0000C945C100E94211070F3959FC1F3950F12
:1021000050E0551F629FF001729FBB27F00DB11D7B
:10211000639FAA27F00DB11DAA1F649F6627B00D0B
:10212000A11D661F829F2227B00DA11D621F739FF4
:10213000B00DA11D621F839FA00D611D221F749F02
:102140003327A00D611D231F849F600D211D822F49
:10215000762F6A2F11249F5750409AF0F1F0882370
:102160004AF0EE0FFF1FBB1F661F771F881F91509D
:102170005040A9F79E3F510580F00C94D00F0C946D
:102180005C105F3FE4F3983ED4F3869577956795AE
:10219000B795F795E7959F5FC1F7FE2B880F911DC7
:1021A0009695879597F90895A1E21A2EAA1BBB1B55
:1021B000FD010DC0AA1FBB1FEE1FFF1FA217B30713
:1021C000E407F50720F0A21BB30BE40BF50B661F29
:1021D000771F881F991F1A9469F7609570958095ED
:1021E00090959B01AC01BD01CF010895EE0FFF1F3B
:0C21F0000590F491E02D0994F894FFCFC5
:1021FC00020111011100010203010002000300049D
:10220C00000500060007001501160112001300144A
:10221C00021A001B001E001F001C001D00000053B2
:10222C00657420526F746174696F6E3A00526967FD
:10223C006874004C656674200054686520446566BB
:10224C0061756C7400526F746174696F6E205269A1
:10225C006768742000526F746174696F6E204C65EE
:10226C0066740053706565643A3330252044697296
:10227C003A204600446973742E3A2000636D005373
:10228C00706565643A353025204469723A20460001
:10229C0053706565643A333025204469723A205294
:1022AC000053706565643A333025204469723A20D6
:1022BC004C0053706565643A333025204469723A9A
:1022CC0020530053706565643A333025204469729D
:0A22DC003A20420000020000000753
:00000001FF
